{
  "contractName": "Dvote",
  "abi": [
    {
      "anonymous": false,
      "inputs": [
        {
          "indexed": false,
          "internalType": "uint8",
          "name": "sessionID",
          "type": "uint8"
        },
        {
          "indexed": false,
          "internalType": "address",
          "name": "candidate",
          "type": "address"
        }
      ],
      "name": "candidateApproved",
      "type": "event"
    },
    {
      "anonymous": false,
      "inputs": [
        {
          "indexed": false,
          "internalType": "uint256",
          "name": "sessionID",
          "type": "uint256"
        },
        {
          "indexed": false,
          "internalType": "address",
          "name": "user",
          "type": "address"
        }
      ],
      "name": "joinSessionCandidateRequest",
      "type": "event"
    },
    {
      "anonymous": false,
      "inputs": [
        {
          "indexed": false,
          "internalType": "uint256",
          "name": "sessionID",
          "type": "uint256"
        },
        {
          "indexed": false,
          "internalType": "address",
          "name": "user",
          "type": "address"
        }
      ],
      "name": "joinSessionVoterRequest",
      "type": "event"
    },
    {
      "anonymous": false,
      "inputs": [
        {
          "indexed": false,
          "internalType": "address",
          "name": "user",
          "type": "address"
        }
      ],
      "name": "participantRegistered",
      "type": "event"
    },
    {
      "anonymous": false,
      "inputs": [
        {
          "indexed": false,
          "internalType": "uint256",
          "name": "id",
          "type": "uint256"
        }
      ],
      "name": "sessionCreated",
      "type": "event"
    },
    {
      "anonymous": false,
      "inputs": [
        {
          "indexed": false,
          "internalType": "uint8",
          "name": "sessionID",
          "type": "uint8"
        },
        {
          "indexed": false,
          "internalType": "address",
          "name": "voter",
          "type": "address"
        }
      ],
      "name": "voterApproved",
      "type": "event"
    },
    {
      "inputs": [
        {
          "internalType": "address",
          "name": "",
          "type": "address"
        }
      ],
      "name": "participants",
      "outputs": [
        {
          "internalType": "address payable",
          "name": "id",
          "type": "address"
        },
        {
          "internalType": "string",
          "name": "imgURI",
          "type": "string"
        },
        {
          "internalType": "string",
          "name": "info",
          "type": "string"
        },
        {
          "internalType": "string",
          "name": "name",
          "type": "string"
        },
        {
          "internalType": "bool",
          "name": "registered",
          "type": "bool"
        }
      ],
      "stateMutability": "view",
      "type": "function",
      "constant": true
    },
    {
      "inputs": [
        {
          "internalType": "uint256",
          "name": "",
          "type": "uint256"
        }
      ],
      "name": "sessions",
      "outputs": [
        {
          "internalType": "address payable",
          "name": "owner",
          "type": "address"
        },
        {
          "internalType": "string",
          "name": "info",
          "type": "string"
        },
        {
          "internalType": "uint8",
          "name": "maxVotersSize",
          "type": "uint8"
        },
        {
          "internalType": "uint8",
          "name": "maxCandidateSize",
          "type": "uint8"
        },
        {
          "internalType": "uint32",
          "name": "registrationDeadline",
          "type": "uint32"
        },
        {
          "internalType": "uint32",
          "name": "votingDeadline",
          "type": "uint32"
        }
      ],
      "stateMutability": "view",
      "type": "function",
      "constant": true
    },
    {
      "inputs": [
        {
          "internalType": "string",
          "name": "info",
          "type": "string"
        },
        {
          "internalType": "uint32",
          "name": "registrationDeadline",
          "type": "uint32"
        },
        {
          "internalType": "uint32",
          "name": "votingDeadline",
          "type": "uint32"
        },
        {
          "internalType": "uint8",
          "name": "maxVotersSize",
          "type": "uint8"
        },
        {
          "internalType": "uint8",
          "name": "maxCandidateSize",
          "type": "uint8"
        }
      ],
      "name": "createSession",
      "outputs": [],
      "stateMutability": "nonpayable",
      "type": "function"
    },
    {
      "inputs": [
        {
          "internalType": "uint8",
          "name": "sessionID",
          "type": "uint8"
        },
        {
          "internalType": "address",
          "name": "user",
          "type": "address"
        }
      ],
      "name": "isRegistered",
      "outputs": [
        {
          "internalType": "bool",
          "name": "status",
          "type": "bool"
        },
        {
          "internalType": "string",
          "name": "registrationType",
          "type": "string"
        }
      ],
      "stateMutability": "view",
      "type": "function",
      "constant": true
    },
    {
      "inputs": [
        {
          "internalType": "string",
          "name": "imgUri",
          "type": "string"
        },
        {
          "internalType": "string",
          "name": "info",
          "type": "string"
        },
        {
          "internalType": "string",
          "name": "name",
          "type": "string"
        }
      ],
      "name": "register",
      "outputs": [],
      "stateMutability": "nonpayable",
      "type": "function"
    },
    {
      "inputs": [
        {
          "internalType": "uint8",
          "name": "sessionID",
          "type": "uint8"
        }
      ],
      "name": "registerVoter",
      "outputs": [],
      "stateMutability": "nonpayable",
      "type": "function"
    },
    {
      "inputs": [
        {
          "internalType": "uint8",
          "name": "sessionID",
          "type": "uint8"
        }
      ],
      "name": "registerCandidate",
      "outputs": [],
      "stateMutability": "nonpayable",
      "type": "function"
    },
    {
      "inputs": [
        {
          "internalType": "uint8",
          "name": "sessionID",
          "type": "uint8"
        },
        {
          "internalType": "address",
          "name": "user",
          "type": "address"
        }
      ],
      "name": "requested",
      "outputs": [
        {
          "internalType": "bool",
          "name": "requestStatus",
          "type": "bool"
        }
      ],
      "stateMutability": "view",
      "type": "function",
      "constant": true
    },
    {
      "inputs": [
        {
          "internalType": "uint8",
          "name": "sessionID",
          "type": "uint8"
        },
        {
          "internalType": "address",
          "name": "voter",
          "type": "address"
        }
      ],
      "name": "approveVoter",
      "outputs": [],
      "stateMutability": "nonpayable",
      "type": "function"
    },
    {
      "inputs": [
        {
          "internalType": "uint8",
          "name": "sessionID",
          "type": "uint8"
        },
        {
          "internalType": "address",
          "name": "candidate",
          "type": "address"
        }
      ],
      "name": "approveCandidate",
      "outputs": [],
      "stateMutability": "nonpayable",
      "type": "function"
    },
    {
      "inputs": [
        {
          "internalType": "uint8",
          "name": "sessionID",
          "type": "uint8"
        },
        {
          "internalType": "address",
          "name": "candidate",
          "type": "address"
        }
      ],
      "name": "vote",
      "outputs": [],
      "stateMutability": "nonpayable",
      "type": "function"
    },
    {
      "inputs": [
        {
          "internalType": "uint8",
          "name": "sessionID",
          "type": "uint8"
        },
        {
          "internalType": "address",
          "name": "user",
          "type": "address"
        }
      ],
      "name": "voted",
      "outputs": [
        {
          "internalType": "bool",
          "name": "result",
          "type": "bool"
        }
      ],
      "stateMutability": "view",
      "type": "function",
      "constant": true
    },
    {
      "inputs": [
        {
          "internalType": "uint8",
          "name": "sessionID",
          "type": "uint8"
        },
        {
          "internalType": "address",
          "name": "candidate",
          "type": "address"
        }
      ],
      "name": "getVoteCount",
      "outputs": [
        {
          "internalType": "uint16",
          "name": "count",
          "type": "uint16"
        }
      ],
      "stateMutability": "view",
      "type": "function",
      "constant": true
    }
  ],
  "bytecode": "0x608060405234801561001057600080fd5b506131c0806100206000396000f3fe608060405234801561001057600080fd5b50600436106100cf5760003560e01c8063900daa731161008c578063b4b8a43011610066578063b4b8a4301461023e578063b81c64531461026e578063c62d0d161461028a578063fd414977146102a6576100cf565b8063900daa73146101c15780639efeeaa7146101f2578063b0fb0bf41461020e576100cf565b806309e69ede146100d45780633ff4bd69146101085780634cd08d03146101245780636d961300146101405780637df9e9ba1461015c57806383c4b7a31461018c575b600080fd5b6100ee60048036038101906100e9919061265b565b6102c2565b6040516100ff959493929190612c6c565b60405180910390f35b610122600480360381019061011d9190612728565b6104bd565b005b61013e60048036038101906101399190612684565b6106b0565b005b61015a600480360381019061015591906127e3565b610991565b005b6101766004803603810190610171919061280c565b610d6f565b6040516101839190612d3c565b60405180910390f35b6101a660048036038101906101a191906127ba565b610e11565b6040516101b896959493929190612cd4565b60405180910390f35b6101db60048036038101906101d6919061280c565b610f3f565b6040516101e9929190612d57565b60405180910390f35b61020c600480360381019061020791906127e3565b6111e4565b005b6102286004803603810190610223919061280c565b6115c2565b6040516102359190612d3c565b60405180910390f35b6102586004803603810190610253919061280c565b611664565b6040516102659190612ee7565b60405180910390f35b6102886004803603810190610283919061280c565b61170d565b005b6102a4600480360381019061029f919061280c565b611b75565b005b6102c060048036038101906102bb919061280c565b611f51565b005b60016020528060005260406000206000915090508060000160009054906101000a900473ffffffffffffffffffffffffffffffffffffffff169080600101805461030b9061308d565b80601f01602080910402602001604051908101604052809291908181526020018280546103379061308d565b80156103845780601f1061035957610100808354040283529160200191610384565b820191906000526020600020905b81548152906001019060200180831161036757829003601f168201915b5050505050908060020180546103999061308d565b80601f01602080910402602001604051908101604052809291908181526020018280546103c59061308d565b80156104125780601f106103e757610100808354040283529160200191610412565b820191906000526020600020905b8154815290600101906020018083116103f557829003601f168201915b5050505050908060030180546104279061308d565b80601f01602080910402602001604051908101604052809291908181526020018280546104539061308d565b80156104a05780601f10610475576101008083540402835291602001916104a0565b820191906000526020600020905b81548152906001019060200180831161048357829003601f168201915b5050505050908060040160009054906101000a900460ff16905085565b600080600181600181540180825580915050039060005260206000209060090201905086868260010191906104f3929190612494565b50848160080160006101000a81548163ffffffff021916908363ffffffff160217905550838160080160046101000a81548163ffffffff021916908363ffffffff160217905550338160000160006101000a81548173ffffffffffffffffffffffffffffffffffffffff021916908373ffffffffffffffffffffffffffffffffffffffff160217905550818160020160016101000a81548160ff021916908360ff160217905550828160020160006101000a81548160ff021916908360ff16021790555060018160050160003373ffffffffffffffffffffffffffffffffffffffff1673ffffffffffffffffffffffffffffffffffffffff16815260200190815260200160002060006101000a81548160ff02191690831515021790555060018160030160003373ffffffffffffffffffffffffffffffffffffffff1673ffffffffffffffffffffffffffffffffffffffff16815260200190815260200160002060006101000a81548160ff0219169083151502179055507f1037545e264f7d6c7d015e8e70df985e55c9cd204b86bd583f8a667749a8d70560008054905060405161069f9190612f02565b60405180910390a150505050505050565b60001515600160003373ffffffffffffffffffffffffffffffffffffffff1673ffffffffffffffffffffffffffffffffffffffff16815260200190815260200160002060040160009054906101000a900460ff16151514610746576040517f08c379a000000000000000000000000000000000000000000000000000000000815260040161073d90612e47565b60405180910390fd5b6040518060a001604052803373ffffffffffffffffffffffffffffffffffffffff16815260200187878080601f016020809104026020016040519081016040528093929190818152602001838380828437600081840152601f19601f82011690508083019250505050505050815260200185858080601f016020809104026020016040519081016040528093929190818152602001838380828437600081840152601f19601f82011690508083019250505050505050815260200183838080601f016020809104026020016040519081016040528093929190818152602001838380828437600081840152601f19601f82011690508083019250505050505050815260200160011515815250600160003373ffffffffffffffffffffffffffffffffffffffff1673ffffffffffffffffffffffffffffffffffffffff16815260200190815260200160002060008201518160000160006101000a81548173ffffffffffffffffffffffffffffffffffffffff021916908373ffffffffffffffffffffffffffffffffffffffff16021790555060208201518160010190805190602001906108f492919061251a565b50604082015181600201908051906020019061091192919061251a565b50606082015181600301908051906020019061092e92919061251a565b5060808201518160040160006101000a81548160ff0219169083151502179055509050507f1d733337e8bb8016cccf998441c69b18bf13d1d3c9a03afba7ada4af4f402138336040516109819190612c51565b60405180910390a1505050505050565b3360011515600160008373ffffffffffffffffffffffffffffffffffffffff1673ffffffffffffffffffffffffffffffffffffffff16815260200190815260200160002060040160009054906101000a900460ff16151514610a28576040517f08c379a0000000000000000000000000000000000000000000000000000000008152600401610a1f90612e87565b60405180910390fd5b8160008160ff1681548110610a66577f4e487b7100000000000000000000000000000000000000000000000000000000600052603260045260246000fd5b906000526020600020906009020160080160009054906101000a900463ffffffff1663ffffffff164210610acf576040517f08c379a0000000000000000000000000000000000000000000000000000000008152600401610ac690612ea7565b60405180910390fd5b6000151560008460ff1681548110610b10577f4e487b7100000000000000000000000000000000000000000000000000000000600052603260045260246000fd5b906000526020600020906009020160050160003373ffffffffffffffffffffffffffffffffffffffff1673ffffffffffffffffffffffffffffffffffffffff16815260200190815260200160002060009054906101000a900460ff16151514610bae576040517f08c379a0000000000000000000000000000000000000000000000000000000008152600401610ba590612e27565b60405180910390fd5b6000151560008460ff1681548110610bef577f4e487b7100000000000000000000000000000000000000000000000000000000600052603260045260246000fd5b906000526020600020906009020160030160003373ffffffffffffffffffffffffffffffffffffffff1673ffffffffffffffffffffffffffffffffffffffff16815260200190815260200160002060009054906101000a900460ff16151514610c8d576040517f08c379a0000000000000000000000000000000000000000000000000000000008152600401610c8490612ec7565b60405180910390fd5b600160008460ff1681548110610ccc577f4e487b7100000000000000000000000000000000000000000000000000000000600052603260045260246000fd5b906000526020600020906009020160030160003373ffffffffffffffffffffffffffffffffffffffff1673ffffffffffffffffffffffffffffffffffffffff16815260200190815260200160002060006101000a81548160ff0219169083151502179055507fe0649190a38918b63170e1e3832ff34e67c8f11cfd6cf26ba0828355105e320d8333604051610d62929190612f1d565b60405180910390a1505050565b6000808360ff1681548110610dad577f4e487b7100000000000000000000000000000000000000000000000000000000600052603260045260246000fd5b906000526020600020906009020160030160008373ffffffffffffffffffffffffffffffffffffffff1673ffffffffffffffffffffffffffffffffffffffff16815260200190815260200160002060009054906101000a900460ff16905092915050565b60008181548110610e2157600080fd5b90600052602060002090600902016000915090508060000160009054906101000a900473ffffffffffffffffffffffffffffffffffffffff1690806001018054610e6a9061308d565b80601f0160208091040260200160405190810160405280929190818152602001828054610e969061308d565b8015610ee35780601f10610eb857610100808354040283529160200191610ee3565b820191906000526020600020905b815481529060010190602001808311610ec657829003601f168201915b5050505050908060020160009054906101000a900460ff16908060020160019054906101000a900460ff16908060080160009054906101000a900463ffffffff16908060080160049054906101000a900463ffffffff16905086565b600060608260011515600160008373ffffffffffffffffffffffffffffffffffffffff1673ffffffffffffffffffffffffffffffffffffffff16815260200190815260200160002060040160009054906101000a900460ff16151514610fda576040517f08c379a0000000000000000000000000000000000000000000000000000000008152600401610fd190612e87565b60405180910390fd5b6001151560008660ff168154811061101b577f4e487b7100000000000000000000000000000000000000000000000000000000600052603260045260246000fd5b906000526020600020906009020160050160008673ffffffffffffffffffffffffffffffffffffffff1673ffffffffffffffffffffffffffffffffffffffff16815260200190815260200160002060009054906101000a900460ff16151514156110c05760016040518060400160405280600581526020017f766f746572000000000000000000000000000000000000000000000000000000815250925092506111dc565b60008560ff16815481106110fd577f4e487b7100000000000000000000000000000000000000000000000000000000600052603260045260246000fd5b906000526020600020906009020160060160008573ffffffffffffffffffffffffffffffffffffffff1673ffffffffffffffffffffffffffffffffffffffff16815260200190815260200160002060009054906101000a900460ff161561119f5760016040518060400160405280600981526020017f63616e6469646174650000000000000000000000000000000000000000000000815250925092506111dc565b60006040518060400160405280600d81526020017f4e6f745265676973746572656400000000000000000000000000000000000000815250925092505b509250929050565b3360011515600160008373ffffffffffffffffffffffffffffffffffffffff1673ffffffffffffffffffffffffffffffffffffffff16815260200190815260200160002060040160009054906101000a900460ff1615151461127b576040517f08c379a000000000000000000000000000000000000000000000000000000000815260040161127290612e87565b60405180910390fd5b8160008160ff16815481106112b9577f4e487b7100000000000000000000000000000000000000000000000000000000600052603260045260246000fd5b906000526020600020906009020160080160009054906101000a900463ffffffff1663ffffffff164210611322576040517f08c379a000000000000000000000000000000000000000000000000000000000815260040161131990612ea7565b60405180910390fd5b6000151560008460ff1681548110611363577f4e487b7100000000000000000000000000000000000000000000000000000000600052603260045260246000fd5b906000526020600020906009020160060160003373ffffffffffffffffffffffffffffffffffffffff1673ffffffffffffffffffffffffffffffffffffffff16815260200190815260200160002060009054906101000a900460ff16151514611401576040517f08c379a00000000000000000000000000000000000000000000000000000000081526004016113f890612e27565b60405180910390fd5b6000151560008460ff1681548110611442577f4e487b7100000000000000000000000000000000000000000000000000000000600052603260045260246000fd5b906000526020600020906009020160030160003373ffffffffffffffffffffffffffffffffffffffff1673ffffffffffffffffffffffffffffffffffffffff16815260200190815260200160002060009054906101000a900460ff161515146114e0576040517f08c379a00000000000000000000000000000000000000000000000000000000081526004016114d790612ec7565b60405180910390fd5b600160008460ff168154811061151f577f4e487b7100000000000000000000000000000000000000000000000000000000600052603260045260246000fd5b906000526020600020906009020160030160003373ffffffffffffffffffffffffffffffffffffffff1673ffffffffffffffffffffffffffffffffffffffff16815260200190815260200160002060006101000a81548160ff0219169083151502179055507fb08cf159639c7add4d64a87af0f498f841c0b402da67394ef4493d14669e953e83336040516115b5929190612f1d565b60405180910390a1505050565b6000808360ff1681548110611600577f4e487b7100000000000000000000000000000000000000000000000000000000600052603260045260246000fd5b906000526020600020906009020160040160008373ffffffffffffffffffffffffffffffffffffffff1673ffffffffffffffffffffffffffffffffffffffff16815260200190815260200160002060009054906101000a900460ff16905092915050565b60008060008460ff16815481106116a4577f4e487b7100000000000000000000000000000000000000000000000000000000600052603260045260246000fd5b906000526020600020906009020160070160008473ffffffffffffffffffffffffffffffffffffffff1673ffffffffffffffffffffffffffffffffffffffff16815260200190815260200160002060009054906101000a900461ffff1690508091505092915050565b3360011515600160008373ffffffffffffffffffffffffffffffffffffffff1673ffffffffffffffffffffffffffffffffffffffff16815260200190815260200160002060040160009054906101000a900460ff161515146117a4576040517f08c379a000000000000000000000000000000000000000000000000000000000815260040161179b90612e87565b60405180910390fd5b60008360ff16815481106117e1577f4e487b7100000000000000000000000000000000000000000000000000000000600052603260045260246000fd5b906000526020600020906009020160080160049054906101000a900463ffffffff1663ffffffff1642111561184b576040517f08c379a000000000000000000000000000000000000000000000000000000000815260040161184290612e67565b60405180910390fd5b6001151560008460ff168154811061188c577f4e487b7100000000000000000000000000000000000000000000000000000000600052603260045260246000fd5b906000526020600020906009020160050160003373ffffffffffffffffffffffffffffffffffffffff1673ffffffffffffffffffffffffffffffffffffffff16815260200190815260200160002060009054906101000a900460ff1615151461192a576040517f08c379a000000000000000000000000000000000000000000000000000000000815260040161192190612da7565b60405180910390fd5b6000151560008460ff168154811061196b577f4e487b7100000000000000000000000000000000000000000000000000000000600052603260045260246000fd5b906000526020600020906009020160040160003373ffffffffffffffffffffffffffffffffffffffff1673ffffffffffffffffffffffffffffffffffffffff16815260200190815260200160002060009054906101000a900460ff16151514611a09576040517f08c379a0000000000000000000000000000000000000000000000000000000008152600401611a0090612e07565b60405180910390fd5b600160008460ff1681548110611a48577f4e487b7100000000000000000000000000000000000000000000000000000000600052603260045260246000fd5b906000526020600020906009020160040160003373ffffffffffffffffffffffffffffffffffffffff1673ffffffffffffffffffffffffffffffffffffffff16815260200190815260200160002060006101000a81548160ff021916908315150217905550600160008460ff1681548110611aec577f4e487b7100000000000000000000000000000000000000000000000000000000600052603260045260246000fd5b906000526020600020906009020160070160008473ffffffffffffffffffffffffffffffffffffffff1673ffffffffffffffffffffffffffffffffffffffff16815260200190815260200160002060008282829054906101000a900461ffff16611b569190612f8b565b92506101000a81548161ffff021916908361ffff160217905550505050565b8060011515600160008373ffffffffffffffffffffffffffffffffffffffff1673ffffffffffffffffffffffffffffffffffffffff16815260200190815260200160002060040160009054906101000a900460ff16151514611c0c576040517f08c379a0000000000000000000000000000000000000000000000000000000008152600401611c0390612e87565b60405180910390fd5b8260008160ff1681548110611c4a577f4e487b7100000000000000000000000000000000000000000000000000000000600052603260045260246000fd5b906000526020600020906009020160080160009054906101000a900463ffffffff1663ffffffff164210611cb3576040517f08c379a0000000000000000000000000000000000000000000000000000000008152600401611caa90612ea7565b60405180910390fd5b60008460ff1681548110611cf0577f4e487b7100000000000000000000000000000000000000000000000000000000600052603260045260246000fd5b906000526020600020906009020160000160009054906101000a900473ffffffffffffffffffffffffffffffffffffffff1673ffffffffffffffffffffffffffffffffffffffff163373ffffffffffffffffffffffffffffffffffffffff1614611d8f576040517f08c379a0000000000000000000000000000000000000000000000000000000008152600401611d8690612dc7565b60405180910390fd5b6000151560008560ff1681548110611dd0577f4e487b7100000000000000000000000000000000000000000000000000000000600052603260045260246000fd5b906000526020600020906009020160050160008573ffffffffffffffffffffffffffffffffffffffff1673ffffffffffffffffffffffffffffffffffffffff16815260200190815260200160002060009054906101000a900460ff16151514611e6e576040517f08c379a0000000000000000000000000000000000000000000000000000000008152600401611e6590612de7565b60405180910390fd5b600160008560ff1681548110611ead577f4e487b7100000000000000000000000000000000000000000000000000000000600052603260045260246000fd5b906000526020600020906009020160050160008573ffffffffffffffffffffffffffffffffffffffff1673ffffffffffffffffffffffffffffffffffffffff16815260200190815260200160002060006101000a81548160ff0219169083151502179055507f5231be78bfc3548c48276c4cd3436e05e9f81802eb2f404ad380178d805314d68484604051611f43929190612f46565b60405180910390a150505050565b8060011515600160008373ffffffffffffffffffffffffffffffffffffffff1673ffffffffffffffffffffffffffffffffffffffff16815260200190815260200160002060040160009054906101000a900460ff16151514611fe8576040517f08c379a0000000000000000000000000000000000000000000000000000000008152600401611fdf90612e87565b60405180910390fd5b8260008160ff1681548110612026577f4e487b7100000000000000000000000000000000000000000000000000000000600052603260045260246000fd5b906000526020600020906009020160080160009054906101000a900463ffffffff1663ffffffff16421061208f576040517f08c379a000000000000000000000000000000000000000000000000000000000815260040161208690612ea7565b60405180910390fd5b60008460ff16815481106120cc577f4e487b7100000000000000000000000000000000000000000000000000000000600052603260045260246000fd5b906000526020600020906009020160000160009054906101000a900473ffffffffffffffffffffffffffffffffffffffff1673ffffffffffffffffffffffffffffffffffffffff163373ffffffffffffffffffffffffffffffffffffffff161461216b576040517f08c379a000000000000000000000000000000000000000000000000000000000815260040161216290612dc7565b60405180910390fd5b6000151560008560ff16815481106121ac577f4e487b7100000000000000000000000000000000000000000000000000000000600052603260045260246000fd5b906000526020600020906009020160060160008573ffffffffffffffffffffffffffffffffffffffff1673ffffffffffffffffffffffffffffffffffffffff16815260200190815260200160002060009054906101000a900460ff1615151461224a576040517f08c379a000000000000000000000000000000000000000000000000000000000815260040161224190612d87565b60405180910390fd5b600160008560ff1681548110612289577f4e487b7100000000000000000000000000000000000000000000000000000000600052603260045260246000fd5b906000526020600020906009020160060160008573ffffffffffffffffffffffffffffffffffffffff1673ffffffffffffffffffffffffffffffffffffffff16815260200190815260200160002060006101000a81548160ff021916908315150217905550600160008560ff168154811061232d577f4e487b7100000000000000000000000000000000000000000000000000000000600052603260045260246000fd5b906000526020600020906009020160070160008573ffffffffffffffffffffffffffffffffffffffff1673ffffffffffffffffffffffffffffffffffffffff16815260200190815260200160002060008282829054906101000a900461ffff166123979190612f8b565b92506101000a81548161ffff021916908361ffff160217905550600160008560ff16815481106123f0577f4e487b7100000000000000000000000000000000000000000000000000000000600052603260045260246000fd5b906000526020600020906009020160040160008573ffffffffffffffffffffffffffffffffffffffff1673ffffffffffffffffffffffffffffffffffffffff16815260200190815260200160002060006101000a81548160ff0219169083151502179055507fab3d4047fe1081c4d8450e1571c456d19a5b10e74ab221fcd1018913a9f381cd8484604051612486929190612f46565b60405180910390a150505050565b8280546124a09061308d565b90600052602060002090601f0160209004810192826124c25760008555612509565b82601f106124db57803560ff1916838001178555612509565b82800160010185558215612509579182015b828111156125085782358255916020019190600101906124ed565b5b50905061251691906125a0565b5090565b8280546125269061308d565b90600052602060002090601f016020900481019282612548576000855561258f565b82601f1061256157805160ff191683800117855561258f565b8280016001018555821561258f579182015b8281111561258e578251825591602001919060010190612573565b5b50905061259c91906125a0565b5090565b5b808211156125b95760008160009055506001016125a1565b5090565b6000813590506125cc8161312e565b92915050565b60008083601f8401126125e457600080fd5b8235905067ffffffffffffffff8111156125fd57600080fd5b60208301915083600182028301111561261557600080fd5b9250929050565b60008135905061262b81613145565b92915050565b6000813590506126408161315c565b92915050565b60008135905061265581613173565b92915050565b60006020828403121561266d57600080fd5b600061267b848285016125bd565b91505092915050565b6000806000806000806060878903121561269d57600080fd5b600087013567ffffffffffffffff8111156126b757600080fd5b6126c389828a016125d2565b9650965050602087013567ffffffffffffffff8111156126e257600080fd5b6126ee89828a016125d2565b9450945050604087013567ffffffffffffffff81111561270d57600080fd5b61271989828a016125d2565b92509250509295509295509295565b60008060008060008060a0878903121561274157600080fd5b600087013567ffffffffffffffff81111561275b57600080fd5b61276789828a016125d2565b9650965050602061277a89828a01612631565b945050604061278b89828a01612631565b935050606061279c89828a01612646565b92505060806127ad89828a01612646565b9150509295509295509295565b6000602082840312156127cc57600080fd5b60006127da8482850161261c565b91505092915050565b6000602082840312156127f557600080fd5b600061280384828501612646565b91505092915050565b6000806040838503121561281f57600080fd5b600061282d85828601612646565b925050602061283e858286016125bd565b9150509250929050565b61285181612fd5565b82525050565b61286081612fc3565b82525050565b61286f81612fe7565b82525050565b600061288082612f6f565b61288a8185612f7a565b935061289a81856020860161305a565b6128a38161311d565b840191505092915050565b60006128bb601a83612f7a565b91507f63616e64696461746520616c726561647920617070726f7665640000000000006000830152602082019050919050565b60006128fb602d83612f7a565b91507f4e6f7420617070726f7665642062792061646d696e20746f20766f746520696e60008301527f20746869732073657373696f6e000000000000000000000000000000000000006020830152604082019050919050565b6000612961601b83612f7a565b91507f73656e64657220646f6573206e6f74206f776e2073657373696f6e00000000006000830152602082019050919050565b60006129a1601683612f7a565b91507f766f74657220616c726561647920617070726f766564000000000000000000006000830152602082019050919050565b60006129e1601883612f7a565b91507f63616e7420766f7465206d6f7265207468656e206f6e636500000000000000006000830152602082019050919050565b6000612a21602783612f7a565b91507f5573657220616c7265616479207265676973746572656420696e20746869732060008301527f73657373696f6e000000000000000000000000000000000000000000000000006020830152604082019050919050565b6000612a87602083612f7a565b91507f7573657220616c7265616479207265676973746572656420696e2044766f74656000830152602082019050919050565b6000612ac7602883612f7a565b91507f416374696f6e206e6f7420706572666f726d656420647572696e6720766f746960008301527f6e672070686173650000000000000000000000000000000000000000000000006020830152604082019050919050565b6000612b2d602383612f7a565b91507f7061727469636970616e74206e6f74207265676973746572656420696e20447660008301527f6f746500000000000000000000000000000000000000000000000000000000006020830152604082019050919050565b6000612b93601a83612f7a565b91507f526567697374726174696f6e20506861736520657870697265640000000000006000830152602082019050919050565b6000612bd3601f83612f7a565b91507f7573657220616c726561647920726571756573746564207265676973747279006000830152602082019050919050565b612c0f81612ff3565b82525050565b612c1e81613021565b82525050565b612c2d8161302b565b82525050565b612c3c81613048565b82525050565b612c4b8161303b565b82525050565b6000602082019050612c666000830184612857565b92915050565b600060a082019050612c816000830188612848565b8181036020830152612c938187612875565b90508181036040830152612ca78186612875565b90508181036060830152612cbb8185612875565b9050612cca6080830184612866565b9695505050505050565b600060c082019050612ce96000830189612848565b8181036020830152612cfb8188612875565b9050612d0a6040830187612c42565b612d176060830186612c42565b612d246080830185612c24565b612d3160a0830184612c24565b979650505050505050565b6000602082019050612d516000830184612866565b92915050565b6000604082019050612d6c6000830185612866565b8181036020830152612d7e8184612875565b90509392505050565b60006020820190508181036000830152612da0816128ae565b9050919050565b60006020820190508181036000830152612dc0816128ee565b9050919050565b60006020820190508181036000830152612de081612954565b9050919050565b60006020820190508181036000830152612e0081612994565b9050919050565b60006020820190508181036000830152612e20816129d4565b9050919050565b60006020820190508181036000830152612e4081612a14565b9050919050565b60006020820190508181036000830152612e6081612a7a565b9050919050565b60006020820190508181036000830152612e8081612aba565b9050919050565b60006020820190508181036000830152612ea081612b20565b9050919050565b60006020820190508181036000830152612ec081612b86565b9050919050565b60006020820190508181036000830152612ee081612bc6565b9050919050565b6000602082019050612efc6000830184612c06565b92915050565b6000602082019050612f176000830184612c15565b92915050565b6000604082019050612f326000830185612c33565b612f3f6020830184612857565b9392505050565b6000604082019050612f5b6000830185612c42565b612f686020830184612857565b9392505050565b600081519050919050565b600082825260208201905092915050565b6000612f9682612ff3565b9150612fa183612ff3565b92508261ffff03821115612fb857612fb76130bf565b5b828201905092915050565b6000612fce82613001565b9050919050565b6000612fe082613001565b9050919050565b60008115159050919050565b600061ffff82169050919050565b600073ffffffffffffffffffffffffffffffffffffffff82169050919050565b6000819050919050565b600063ffffffff82169050919050565b600060ff82169050919050565b60006130538261303b565b9050919050565b60005b8381101561307857808201518184015260208101905061305d565b83811115613087576000848401525b50505050565b600060028204905060018216806130a557607f821691505b602082108114156130b9576130b86130ee565b5b50919050565b7f4e487b7100000000000000000000000000000000000000000000000000000000600052601160045260246000fd5b7f4e487b7100000000000000000000000000000000000000000000000000000000600052602260045260246000fd5b6000601f19601f8301169050919050565b61313781612fc3565b811461314257600080fd5b50565b61314e81613021565b811461315957600080fd5b50565b6131658161302b565b811461317057600080fd5b50565b61317c8161303b565b811461318757600080fd5b5056fea26469706673582212201a68fb2e6b97b2a3ad554a8af31ac8232f5ae9885df6cf0ff6f551e0e0a7538f64736f6c63430008000033",
  "immutableReferences": {},
  "source": "// SPDX-License-Identifier: MIT\npragma solidity ^0.8.0;\nimport \"hardhat/console.sol\";\n\ncontract Dvote {\n    session[] public sessions;\n    mapping(address => participant) public participants;\n    event joinSessionVoterRequest(uint256 sessionID, address user);\n    event joinSessionCandidateRequest(uint256 sessionID, address user);\n    event voterApproved(uint8 sessionID, address voter);\n    event candidateApproved(uint8 sessionID, address candidate);\n    event participantRegistered(address user);\n    event sessionCreated(uint256 id);\n    struct session {\n        address payable owner;\n        string info;\n        uint8 maxVotersSize;\n        uint8 maxCandidateSize;\n        mapping(address => bool) requested; // represents who requested to register for dvote session\n        mapping(address => bool) voted;\n        mapping(address => bool) voters; // bool referr to whether voter is approved by admin to vote or not\n        mapping(address => bool) candidates; // bool referr to whether candidate is approved by admin to vote or not\n        mapping(address => uint16) votes;\n        uint32 registrationDeadline; // must be unix Epoch time\n        uint32 votingDeadline;\n    }\n\n    struct participant {\n        address payable id;\n        string imgURI;\n        string info;\n        string name;\n        bool registered; // voters mapping always return a person therefore it is used to make sure that the person queried is not default mapping value\n        //mapping(uint8 => bool) registeredInSession; // keep track of all registered in sessions\n    }\n\n    function createSession(\n        string calldata info,\n        uint32 registrationDeadline,\n        uint32 votingDeadline,\n        uint8 maxVotersSize,\n        uint8 maxCandidateSize\n    ) public {\n        session storage newSession = sessions.push();\n        newSession.info = info;\n        newSession.registrationDeadline = registrationDeadline;\n        newSession.votingDeadline = votingDeadline;\n        newSession.owner = payable(msg.sender);\n        newSession.maxCandidateSize = maxCandidateSize;\n        newSession.maxVotersSize = maxVotersSize;\n        newSession.voters[msg.sender] = true;\n        newSession.requested[msg.sender] = true;\n        emit sessionCreated(sessions.length);\n    }\n\n    // since participant list is a mapping  nested in session therefore cant access it globally\n    function isRegistered(uint8 sessionID, address user)\n        public\n        view\n        registered(user)\n        returns (bool status, string memory registrationType)\n    {\n        if (sessions[sessionID].voters[user] == true) {\n            return (true, \"voter\");\n        } else if (sessions[sessionID].candidates[user]) {\n            return (true, \"candidate\");\n        } else {\n            return (false, \"NotRegistered\");\n        }\n    }\n\n    function register(\n        string calldata imgUri,\n        string calldata info,\n        string calldata name\n    ) external {\n        // participant storage p = participants.push();\n        require(\n            participants[msg.sender].registered == false,\n            \"user already registered in Dvote\"\n        );\n        participants[msg.sender] = participant(\n            payable(msg.sender),\n            imgUri,\n            info,\n            name,\n            true\n        );\n        emit participantRegistered(msg.sender);\n    }\n\n    /*\n    function getParticipant(address user)\n    {\n        participants[user].registered==true\n    }\n*/\n    modifier registered(address p) {\n        require(\n            participants[p].registered == true,\n            \"participant not registered in Dvote\"\n        );\n        _;\n    }\n\n    modifier registrationPhase(uint8 sessionID) {\n        require(\n            block.timestamp < sessions[sessionID].registrationDeadline,\n            \"Registration Phase expired\"\n        );\n        _;\n    }\n\n    // require onlyOwner of the session to add voters\n    // require that registration deadline is not expired\n    /* require that voter is already registered in dvote \n     and its associated value in the mapping voters doesnt contain default values*/\n    function registerVoter(uint8 sessionID)\n        external\n        registered(msg.sender)\n        registrationPhase(sessionID)\n    {\n        require(\n            sessions[sessionID].voters[msg.sender] == false,\n            \"User already registered in this session\"\n        );\n        require(\n            sessions[sessionID].requested[msg.sender] == false,\n            \"user already requested registry\"\n        );\n        sessions[sessionID].requested[msg.sender] = true;\n        emit joinSessionVoterRequest(sessionID, msg.sender);\n    }\n\n    function registerCandidate(uint8 sessionID)\n        external\n        registered(msg.sender)\n        registrationPhase(sessionID)\n    {\n        require(\n            sessions[sessionID].candidates[msg.sender] == false,\n            \"User already registered in this session\"\n        );\n        require(\n            sessions[sessionID].requested[msg.sender] == false,\n            \"user already requested registry\"\n        );\n        sessions[sessionID].requested[msg.sender] = true;\n        emit joinSessionCandidateRequest(sessionID, msg.sender);\n    }\n\n    function requested(uint8 sessionID, address user)\n        external\n        view\n        returns (bool requestStatus)\n    {\n        return sessions[sessionID].requested[user];\n    }\n\n    function approveVoter(uint8 sessionID, address voter)\n        external\n        registered(voter)\n        registrationPhase(sessionID)\n    {\n        require(\n            msg.sender == sessions[sessionID].owner,\n            \"sender does not own session\"\n        );\n        require(\n            sessions[sessionID].voters[voter] == false,\n            \"voter already approved\"\n        );\n        sessions[sessionID].voters[voter] = true;\n        emit voterApproved(sessionID, voter);\n    }\n\n    // approve as voter as well to allow him to vote\n    function approveCandidate(uint8 sessionID, address candidate)\n        external\n        registered(candidate)\n        registrationPhase(sessionID)\n    {\n        require(\n            msg.sender == sessions[sessionID].owner,\n            \"sender does not own session\"\n        );\n        require(\n            sessions[sessionID].candidates[candidate] == false,\n            \"candidate already approved\"\n        );\n        sessions[sessionID].candidates[candidate] = true;\n        sessions[sessionID].votes[candidate] += 1;\n        sessions[sessionID].voted[candidate] = true;\n        emit candidateApproved(sessionID, candidate);\n    }\n\n    // voter must be registered and approved to vote in that session\n    // registration phase must be expired and voting has not ended\n    function vote(uint8 sessionID, address candidate)\n        external\n        registered(msg.sender)\n    {\n        require(\n            block.timestamp <= sessions[sessionID].votingDeadline,\n            \"Action not performed during voting phase\"\n        );\n        require(\n            sessions[sessionID].voters[msg.sender] == true,\n            \"Not approved by admin to vote in this session\"\n        );\n        require(\n            sessions[sessionID].voted[msg.sender] == false,\n            \"cant vote more then once\"\n        );\n        sessions[sessionID].voted[msg.sender] = true;\n        sessions[sessionID].votes[candidate] += 1;\n    }\n\n    function voted(uint8 sessionID, address user)\n        external\n        view\n        returns (bool result)\n    {\n        return sessions[sessionID].voted[user];\n    }\n\n    function getVoteCount(uint8 sessionID, address candidate)\n        public\n        view\n        returns (uint16 count)\n    {\n        uint16 voteCount = sessions[sessionID].votes[candidate];\n        return voteCount;\n    }\n    // need to refactor in case equal votes\n}\n",
  "sourcePath": "/home/ezio/Desktop/Dapps/hardhatdvote/contracts/Dvote.sol",
  "compiler": {
    "name": "solc",
    "version": "0.8.0+commit.c7dfd78e.Emscripten.clang"
  },
  "schemaVersion": "3.4.7",
  "updatedAt": "2022-07-14T18:22:17.830Z",
  "networkType": "ethereum",
  "devdoc": {
    "kind": "dev",
    "methods": {},
    "version": 1
  },
  "userdoc": {
    "kind": "user",
    "methods": {},
    "version": 1
  }
}